{
  "contractName": "StakeFarm",
  "abi": [
    {
      "inputs": [
        {
          "internalType": "contract IERC20",
          "name": "_inrcToken",
          "type": "address"
        },
        {
          "internalType": "contract IERC20",
          "name": "_usdcToken",
          "type": "address"
        }
      ],
      "stateMutability": "nonpayable",
      "type": "constructor"
    },
    {
      "anonymous": false,
      "inputs": [
        {
          "indexed": false,
          "internalType": "address",
          "name": "by",
          "type": "address"
        },
        {
          "indexed": false,
          "internalType": "uint256",
          "name": "amount",
          "type": "uint256"
        }
      ],
      "name": "Reedem",
      "type": "event"
    },
    {
      "anonymous": false,
      "inputs": [
        {
          "indexed": false,
          "internalType": "address",
          "name": "by",
          "type": "address"
        },
        {
          "indexed": false,
          "internalType": "uint256",
          "name": "amount",
          "type": "uint256"
        }
      ],
      "name": "Staked",
      "type": "event"
    },
    {
      "inputs": [],
      "name": "inrcToken",
      "outputs": [
        {
          "internalType": "contract IERC20",
          "name": "",
          "type": "address"
        }
      ],
      "stateMutability": "view",
      "type": "function",
      "constant": true
    },
    {
      "inputs": [],
      "name": "owner",
      "outputs": [
        {
          "internalType": "address",
          "name": "",
          "type": "address"
        }
      ],
      "stateMutability": "view",
      "type": "function",
      "constant": true
    },
    {
      "inputs": [],
      "name": "usdcToken",
      "outputs": [
        {
          "internalType": "contract IERC20",
          "name": "",
          "type": "address"
        }
      ],
      "stateMutability": "view",
      "type": "function",
      "constant": true
    },
    {
      "inputs": [
        {
          "internalType": "uint256",
          "name": "_amount",
          "type": "uint256"
        }
      ],
      "name": "getMintingFee",
      "outputs": [
        {
          "internalType": "uint256",
          "name": "",
          "type": "uint256"
        }
      ],
      "stateMutability": "pure",
      "type": "function",
      "constant": true
    },
    {
      "inputs": [
        {
          "internalType": "uint256",
          "name": "_amount",
          "type": "uint256"
        }
      ],
      "name": "stakeTokens",
      "outputs": [],
      "stateMutability": "nonpayable",
      "type": "function"
    },
    {
      "inputs": [
        {
          "internalType": "uint256",
          "name": "_amount",
          "type": "uint256"
        }
      ],
      "name": "redeemTokens",
      "outputs": [],
      "stateMutability": "nonpayable",
      "type": "function"
    }
  ],
  "bytecode": "0x60806040523480156200001157600080fd5b50604051620011a4380380620011a4833981810160405281019062000037919062000118565b81600160006101000a81548173ffffffffffffffffffffffffffffffffffffffff021916908373ffffffffffffffffffffffffffffffffffffffff16021790555080600260006101000a81548173ffffffffffffffffffffffffffffffffffffffff021916908373ffffffffffffffffffffffffffffffffffffffff160217905550336000806101000a81548173ffffffffffffffffffffffffffffffffffffffff021916908373ffffffffffffffffffffffffffffffffffffffff1602179055505050620001bb565b6000815190506200011281620001a1565b92915050565b600080604083850312156200012c57600080fd5b60006200013c8582860162000101565b92505060206200014f8582860162000101565b9150509250929050565b6000620001668262000181565b9050919050565b60006200017a8262000159565b9050919050565b600073ffffffffffffffffffffffffffffffffffffffff82169050919050565b620001ac816200016d565b8114620001b857600080fd5b50565b610fd980620001cb6000396000f3fe608060405234801561001057600080fd5b50600436106100625760003560e01c806311eac855146100675780636acca64b146100855780637547c7a3146100b55780638da5cb5b146100d1578063a6e158f8146100ef578063c7a3b8161461010b575b600080fd5b61006f610129565b60405161007c9190610ba0565b60405180910390f35b61009f600480360381019061009a91906109f7565b61014f565b6040516100ac9190610c5b565b60405180910390f35b6100cf60048036038101906100ca91906109f7565b610165565b005b6100d9610555565b6040516100e69190610b25565b60405180910390f35b610109600480360381019061010491906109f7565b610579565b005b610113610969565b6040516101209190610ba0565b60405180910390f35b600260009054906101000a900473ffffffffffffffffffffffffffffffffffffffff1681565b600060c88261015e9190610c87565b9050919050565b600081116101a8576040517f08c379a000000000000000000000000000000000000000000000000000000000815260040161019f90610c3b565b60405180910390fd5b80600260009054906101000a900473ffffffffffffffffffffffffffffffffffffffff1673ffffffffffffffffffffffffffffffffffffffff166370a08231336040518263ffffffff1660e01b81526004016102049190610b25565b60206040518083038186803b15801561021c57600080fd5b505afa158015610230573d6000803e3d6000fd5b505050506040513d601f19601f820116820180604052508101906102549190610a20565b11610294576040517f08c379a000000000000000000000000000000000000000000000000000000000815260040161028b90610bdb565b60405180910390fd5b8060506102a19190610cb8565b600160009054906101000a900473ffffffffffffffffffffffffffffffffffffffff1673ffffffffffffffffffffffffffffffffffffffff166370a08231306040518263ffffffff1660e01b81526004016102fc9190610b25565b60206040518083038186803b15801561031457600080fd5b505afa158015610328573d6000803e3d6000fd5b505050506040513d601f19601f8201168201806040525081019061034c9190610a20565b1161038c576040517f08c379a000000000000000000000000000000000000000000000000000000000815260040161038390610bfb565b60405180910390fd5b600260009054906101000a900473ffffffffffffffffffffffffffffffffffffffff1673ffffffffffffffffffffffffffffffffffffffff166323b872dd3330846040518463ffffffff1660e01b81526004016103eb93929190610b40565b602060405180830381600087803b15801561040557600080fd5b505af1158015610419573d6000803e3d6000fd5b505050506040513d601f19601f8201168201806040525081019061043d91906109ce565b50600160009054906101000a900473ffffffffffffffffffffffffffffffffffffffff1673ffffffffffffffffffffffffffffffffffffffff1663a9059cbb3361049284605061048d9190610cb8565b61014f565b84605061049f9190610cb8565b6104a99190610d12565b6040518363ffffffff1660e01b81526004016104c6929190610b77565b602060405180830381600087803b1580156104e057600080fd5b505af11580156104f4573d6000803e3d6000fd5b505050506040513d601f19601f8201168201806040525081019061051891906109ce565b507f9e71bc8eea02a63969f509818f2dafb9254532904319f9dbda79b67bd34a5f3d338260405161054a929190610b77565b60405180910390a150565b60008054906101000a900473ffffffffffffffffffffffffffffffffffffffff1681565b600081116105bc576040517f08c379a00000000000000000000000000000000000000000000000000000000081526004016105b390610c3b565b60405180910390fd5b80600160009054906101000a900473ffffffffffffffffffffffffffffffffffffffff1673ffffffffffffffffffffffffffffffffffffffff166370a08231336040518263ffffffff1660e01b81526004016106189190610b25565b60206040518083038186803b15801561063057600080fd5b505afa158015610644573d6000803e3d6000fd5b505050506040513d601f19601f820116820180604052508101906106689190610a20565b116106a8576040517f08c379a000000000000000000000000000000000000000000000000000000000815260040161069f90610c1b565b60405180910390fd5b6050816106b59190610c87565b600260009054906101000a900473ffffffffffffffffffffffffffffffffffffffff1673ffffffffffffffffffffffffffffffffffffffff166370a08231306040518263ffffffff1660e01b81526004016107109190610b25565b60206040518083038186803b15801561072857600080fd5b505afa15801561073c573d6000803e3d6000fd5b505050506040513d601f19601f820116820180604052508101906107609190610a20565b116107a0576040517f08c379a000000000000000000000000000000000000000000000000000000000815260040161079790610bbb565b60405180910390fd5b600160009054906101000a900473ffffffffffffffffffffffffffffffffffffffff1673ffffffffffffffffffffffffffffffffffffffff166323b872dd3330846040518463ffffffff1660e01b81526004016107ff93929190610b40565b602060405180830381600087803b15801561081957600080fd5b505af115801561082d573d6000803e3d6000fd5b505050506040513d601f19601f8201168201806040525081019061085191906109ce565b50600260009054906101000a900473ffffffffffffffffffffffffffffffffffffffff1673ffffffffffffffffffffffffffffffffffffffff1663a9059cbb336108a66050856108a19190610c87565b61014f565b6050856108b39190610c87565b6108bd9190610d12565b6040518363ffffffff1660e01b81526004016108da929190610b77565b602060405180830381600087803b1580156108f457600080fd5b505af1158015610908573d6000803e3d6000fd5b505050506040513d601f19601f8201168201806040525081019061092c91906109ce565b507f8c9c06c38312fc3a665880cd1c37e86f1e6396730f3310f9cfd7ac3f7213fc2d338260405161095e929190610b77565b60405180910390a150565b600160009054906101000a900473ffffffffffffffffffffffffffffffffffffffff1681565b60008151905061099e81610f75565b92915050565b6000813590506109b381610f8c565b92915050565b6000815190506109c881610f8c565b92915050565b6000602082840312156109e057600080fd5b60006109ee8482850161098f565b91505092915050565b600060208284031215610a0957600080fd5b6000610a17848285016109a4565b91505092915050565b600060208284031215610a3257600080fd5b6000610a40848285016109b9565b91505092915050565b610a5281610d46565b82525050565b610a6181610d8e565b82525050565b6000610a74603b83610c76565b9150610a7f82610e10565b604082019050919050565b6000610a97602f83610c76565b9150610aa282610e5f565b604082019050919050565b6000610aba603b83610c76565b9150610ac582610eae565b604082019050919050565b6000610add603083610c76565b9150610ae882610efd565b604082019050919050565b6000610b00601283610c76565b9150610b0b82610f4c565b602082019050919050565b610b1f81610d84565b82525050565b6000602082019050610b3a6000830184610a49565b92915050565b6000606082019050610b556000830186610a49565b610b626020830185610a49565b610b6f6040830184610b16565b949350505050565b6000604082019050610b8c6000830185610a49565b610b996020830184610b16565b9392505050565b6000602082019050610bb56000830184610a58565b92915050565b60006020820190508181036000830152610bd481610a67565b9050919050565b60006020820190508181036000830152610bf481610a8a565b9050919050565b60006020820190508181036000830152610c1481610aad565b9050919050565b60006020820190508181036000830152610c3481610ad0565b9050919050565b60006020820190508181036000830152610c5481610af3565b9050919050565b6000602082019050610c706000830184610b16565b92915050565b600082825260208201905092915050565b6000610c9282610d84565b9150610c9d83610d84565b925082610cad57610cac610de1565b5b828204905092915050565b6000610cc382610d84565b9150610cce83610d84565b9250817fffffffffffffffffffffffffffffffffffffffffffffffffffffffffffffffff0483118215151615610d0757610d06610db2565b5b828202905092915050565b6000610d1d82610d84565b9150610d2883610d84565b925082821015610d3b57610d3a610db2565b5b828203905092915050565b6000610d5182610d64565b9050919050565b60008115159050919050565b600073ffffffffffffffffffffffffffffffffffffffff82169050919050565b6000819050919050565b6000610d9982610da0565b9050919050565b6000610dab82610d64565b9050919050565b7f4e487b7100000000000000000000000000000000000000000000000000000000600052601160045260246000fd5b7f4e487b7100000000000000000000000000000000000000000000000000000000600052601260045260246000fd5b7f5553444320746f6b656e2062616c616e6365206f6620636f6e7472616374206960008201527f73206c657373207468616e20657870656374656420616d6f756e740000000000602082015250565b7f5553444320746f6b656e2062616c616e6365206973206c657373207468616e2060008201527f657870656374656420616d6f756e740000000000000000000000000000000000602082015250565b7f494e524320746f6b656e2062616c616e6365206f6620636f6e7472616374206960008201527f73206c657373207468616e20657870656374656420616d6f756e740000000000602082015250565b7f494e524320746f6b656e2062616c616e636520206973206c657373207468616e60008201527f20657870656374656420616d6f756e7400000000000000000000000000000000602082015250565b7f416d6f756e742063616e6e6f7420626520300000000000000000000000000000600082015250565b610f7e81610d58565b8114610f8957600080fd5b50565b610f9581610d84565b8114610fa057600080fd5b5056fea2646970667358221220f155daa94ebd6027afbf22b591cc0fbcf1de391427f2bdd0287c75d59b70d35764736f6c63430008010033",
  "immutableReferences": {},
  "source": "\n// // SPDX-License-Identifier: MIT\npragma solidity 0.8.1;\nimport \"@openzeppelin/contracts/token/ERC20/IERC20.sol\";\n\ncontract StakeFarm {\n   \n    address public owner;\n    IERC20 public inrcToken;\n    IERC20 public usdcToken;\n\n    // mapping(address => uint256) public stakingBalance;\n    // mapping(address => bool) public hasStaked;\n    // mapping(address => uint) public timeOfStakingFor;\n\n    // address[] public stakers;\n\n    event Staked(address by, uint256 amount);\n    event Reedem(address by, uint256 amount);\n\n    constructor(IERC20 _inrcToken, IERC20 _usdcToken) {\n        inrcToken = _inrcToken;\n        usdcToken = _usdcToken;\n        owner = msg.sender;\n    }\n\n    modifier onlyOwner {\n        require(msg.sender == owner, \"Only the owner of the token farm can call this function\");\n        _;\n    }\n\n    // function getStakers() public view returns(address[] memory) {\n    //     return stakers;\n    // }\n\n    function getMintingFee(uint256 _amount) public  pure returns(uint256 ) {\n        return _amount/200;\n    }\n\n    //stake tokens - investor puts money into the app (deposit)\n    function stakeTokens(uint256 _amount) public  {\n        require(_amount > 0, \"Amount cannot be 0\");\n        require(usdcToken.balanceOf(msg.sender) > _amount, \"USDC token balance is less than expected amount\");\n        require(inrcToken.balanceOf(address(this)) > 80 * _amount, \"INRC token balance of contract is less than expected amount\");\n        //transfer mock dai tokens to this contract for staking\n\n        usdcToken.transferFrom(msg.sender, address(this), _amount);\n\n\t\tinrcToken.transfer( msg.sender, (80 * _amount) - getMintingFee(80 * _amount));\n\n        // //update staking balance\n        // stakingBalance[msg.sender] = stakingBalance[msg.sender] ;\n\n        // //update time of staking\n        // timeOfStakingFor[msg.sender] = block.timestamp;\n\n        // // add user to stakers array only if they havent staked already,\n        // // because later we'd want to give them only once the issued tokens\n        // if (!hasStaked[msg.sender]) {\n        //     stakers.push(msg.sender);\n        // }\n        // //update staking status\n        // hasStaked[msg.sender] = true;\n\n        emit Staked(msg.sender, _amount);\n    }\n\n\n    //redeem tokens\n    function redeemTokens(uint256 _amount) public  {\n        require(_amount > 0, \"Amount cannot be 0\");\n        require(inrcToken.balanceOf(msg.sender) > _amount, \"INRC token balance  is less than expected amount\");\n        require(usdcToken.balanceOf(address(this)) > _amount/80, \"USDC token balance of contract is less than expected amount\");\n        \n        inrcToken.transferFrom( msg.sender, address(this) ,_amount);\n\n        usdcToken.transfer(msg.sender, (_amount/80) - getMintingFee(_amount/80));\n\n\n        emit Reedem(msg.sender, _amount);\n    }\n\n   \n}",
  "sourcePath": "/Users/sidharthsrivastava/Documents/bussr/defi_yield_farming/src/contracts/StakeFarm.sol",
  "compiler": {
    "name": "solc",
    "version": "0.8.1+commit.df193b15.Emscripten.clang"
  },
  "schemaVersion": "3.2.3",
  "updatedAt": "2022-07-17T19:51:19.883Z",
  "networkType": "ethereum",
  "devdoc": {
    "kind": "dev",
    "methods": {},
    "version": 1
  },
  "userdoc": {
    "kind": "user",
    "methods": {},
    "version": 1
  }
}