{
  "contractName": "TokenFarm",
  "abi": [
    {
      "inputs": [
        {
          "internalType": "contract DappToken",
          "name": "_metoToken",
          "type": "address"
        },
        {
          "internalType": "contract DaiToken",
          "name": "_daiToken",
          "type": "address"
        }
      ],
      "stateMutability": "nonpayable",
      "type": "constructor"
    },
    {
      "anonymous": false,
      "inputs": [
        {
          "indexed": false,
          "internalType": "address",
          "name": "by",
          "type": "address"
        },
        {
          "indexed": false,
          "internalType": "uint256",
          "name": "amount",
          "type": "uint256"
        }
      ],
      "name": "Staked",
      "type": "event"
    },
    {
      "anonymous": false,
      "inputs": [
        {
          "indexed": false,
          "internalType": "address",
          "name": "by",
          "type": "address"
        },
        {
          "indexed": false,
          "internalType": "uint256",
          "name": "amount",
          "type": "uint256"
        }
      ],
      "name": "Withdrawn",
      "type": "event"
    },
    {
      "inputs": [],
      "name": "daiToken",
      "outputs": [
        {
          "internalType": "contract DaiToken",
          "name": "",
          "type": "address"
        }
      ],
      "stateMutability": "view",
      "type": "function",
      "constant": true
    },
    {
      "inputs": [
        {
          "internalType": "address",
          "name": "",
          "type": "address"
        }
      ],
      "name": "hasStaked",
      "outputs": [
        {
          "internalType": "bool",
          "name": "",
          "type": "bool"
        }
      ],
      "stateMutability": "view",
      "type": "function",
      "constant": true
    },
    {
      "inputs": [],
      "name": "metoToken",
      "outputs": [
        {
          "internalType": "contract DappToken",
          "name": "",
          "type": "address"
        }
      ],
      "stateMutability": "view",
      "type": "function",
      "constant": true
    },
    {
      "inputs": [],
      "name": "name",
      "outputs": [
        {
          "internalType": "string",
          "name": "",
          "type": "string"
        }
      ],
      "stateMutability": "view",
      "type": "function",
      "constant": true
    },
    {
      "inputs": [],
      "name": "owner",
      "outputs": [
        {
          "internalType": "address",
          "name": "",
          "type": "address"
        }
      ],
      "stateMutability": "view",
      "type": "function",
      "constant": true
    },
    {
      "inputs": [
        {
          "internalType": "uint256",
          "name": "",
          "type": "uint256"
        }
      ],
      "name": "stakers",
      "outputs": [
        {
          "internalType": "address",
          "name": "",
          "type": "address"
        }
      ],
      "stateMutability": "view",
      "type": "function",
      "constant": true
    },
    {
      "inputs": [
        {
          "internalType": "address",
          "name": "",
          "type": "address"
        }
      ],
      "name": "stakingBalance",
      "outputs": [
        {
          "internalType": "uint256",
          "name": "",
          "type": "uint256"
        }
      ],
      "stateMutability": "view",
      "type": "function",
      "constant": true
    },
    {
      "inputs": [
        {
          "internalType": "address",
          "name": "",
          "type": "address"
        }
      ],
      "name": "timeOfStakingFor",
      "outputs": [
        {
          "internalType": "uint256",
          "name": "",
          "type": "uint256"
        }
      ],
      "stateMutability": "view",
      "type": "function",
      "constant": true
    },
    {
      "inputs": [],
      "name": "getStakers",
      "outputs": [
        {
          "internalType": "address[]",
          "name": "",
          "type": "address[]"
        }
      ],
      "stateMutability": "view",
      "type": "function",
      "constant": true
    },
    {
      "inputs": [
        {
          "internalType": "uint256",
          "name": "_amount",
          "type": "uint256"
        }
      ],
      "name": "stakeTokens",
      "outputs": [],
      "stateMutability": "payable",
      "type": "function",
      "payable": true
    },
    {
      "inputs": [
        {
          "internalType": "uint256",
          "name": "_amount",
          "type": "uint256"
        }
      ],
      "name": "withdrawTokens",
      "outputs": [],
      "stateMutability": "nonpayable",
      "type": "function"
    }
  ],
  "bytecode": "0x60806040526040518060400160405280600a81526020017f546f6b656e204661726d00000000000000000000000000000000000000000000815250600090805190602001906200005192919062000150565b503480156200005f57600080fd5b5060405162001b8238038062001b8283398181016040528101906200008591906200022e565b81600260006101000a81548173ffffffffffffffffffffffffffffffffffffffff021916908373ffffffffffffffffffffffffffffffffffffffff16021790555080600360006101000a81548173ffffffffffffffffffffffffffffffffffffffff021916908373ffffffffffffffffffffffffffffffffffffffff16021790555033600160006101000a81548173ffffffffffffffffffffffffffffffffffffffff021916908373ffffffffffffffffffffffffffffffffffffffff160217905550505062000364565b8280546200015e90620002cb565b90600052602060002090601f016020900481019282620001825760008555620001ce565b82601f106200019d57805160ff1916838001178555620001ce565b82800160010185558215620001ce579182015b82811115620001cd578251825591602001919060010190620001b0565b5b509050620001dd9190620001e1565b5090565b5b80821115620001fc576000816000905550600101620001e2565b5090565b600081519050620002118162000330565b92915050565b60008151905062000228816200034a565b92915050565b600080604083850312156200024257600080fd5b6000620002528582860162000217565b9250506020620002658582860162000200565b9150509250929050565b60006200027c82620002ab565b9050919050565b600062000290826200026f565b9050919050565b6000620002a4826200026f565b9050919050565b600073ffffffffffffffffffffffffffffffffffffffff82169050919050565b60006002820490506001821680620002e457607f821691505b60208210811415620002fb57620002fa62000301565b5b50919050565b7f4e487b7100000000000000000000000000000000000000000000000000000000600052602260045260246000fd5b6200033b8162000283565b81146200034757600080fd5b50565b620003558162000297565b81146200036157600080fd5b50565b61180e80620003746000396000f3fe60806040526004361061009c5760003560e01c80636ddd0f5f116100645780636ddd0f5f1461019a5780637547c7a3146101c55780638da5cb5b146101e1578063be22f5461461020c578063c93c8f3414610237578063fd5e6dd1146102745761009c565b806306fdde03146100a1578063315a095d146100cc5780633e4808e4146100f557806343352d611461013257806345bc78ab1461015d575b600080fd5b3480156100ad57600080fd5b506100b66102b1565b6040516100c39190611254565b60405180910390f35b3480156100d857600080fd5b506100f360048036038101906100ee9190610fa8565b61033f565b005b34801561010157600080fd5b5061011c60048036038101906101179190610f56565b6109f2565b60405161012991906112f6565b60405180910390f35b34801561013e57600080fd5b50610147610a0a565b60405161015491906111e1565b60405180910390f35b34801561016957600080fd5b50610184600480360381019061017f9190610f56565b610a98565b60405161019191906112f6565b60405180910390f35b3480156101a657600080fd5b506101af610ab0565b6040516101bc9190611239565b60405180910390f35b6101df60048036038101906101da9190610fa8565b610ad6565b005b3480156101ed57600080fd5b506101f6610e6c565b6040516102039190611166565b60405180910390f35b34801561021857600080fd5b50610221610e92565b60405161022e919061121e565b60405180910390f35b34801561024357600080fd5b5061025e60048036038101906102599190610f56565b610eb8565b60405161026b9190611203565b60405180910390f35b34801561028057600080fd5b5061029b60048036038101906102969190610fa8565b610ed8565b6040516102a89190611166565b60405180910390f35b600080546102be9061153e565b80601f01602080910402602001604051908101604052809291908181526020018280546102ea9061153e565b80156103375780601f1061030c57610100808354040283529160200191610337565b820191906000526020600020905b81548152906001019060200180831161031a57829003601f168201915b505050505081565b60008111610382576040517f08c379a0000000000000000000000000000000000000000000000000000000008152600401610379906112d6565b60405180910390fd5b600460003373ffffffffffffffffffffffffffffffffffffffff1673ffffffffffffffffffffffffffffffffffffffff16815260200190815260200160002054811115610404576040517f08c379a00000000000000000000000000000000000000000000000000000000081526004016103fb90611276565b60405180910390fd5b600560003373ffffffffffffffffffffffffffffffffffffffff1673ffffffffffffffffffffffffffffffffffffffff16815260200190815260200160002060009054906101000a900460ff16610490576040517f08c379a0000000000000000000000000000000000000000000000000000000008152600401610487906112b6565b60405180910390fd5b62015180600660003373ffffffffffffffffffffffffffffffffffffffff1673ffffffffffffffffffffffffffffffffffffffff168152602001908152602001600020546104de9190611366565b421015610520576040517f08c379a000000000000000000000000000000000000000000000000000000000815260040161051790611296565b60405180910390fd5b600360009054906101000a900473ffffffffffffffffffffffffffffffffffffffff1673ffffffffffffffffffffffffffffffffffffffff1663a9059cbb33836040518363ffffffff1660e01b815260040161057d9291906111b8565b602060405180830381600087803b15801561059757600080fd5b505af11580156105ab573d6000803e3d6000fd5b505050506040513d601f19601f820116820180604052508101906105cf9190610f7f565b50600260009054906101000a900473ffffffffffffffffffffffffffffffffffffffff1673ffffffffffffffffffffffffffffffffffffffff1663a9059cbb33606460058561061e91906113ed565b61062891906113bc565b6040518363ffffffff1660e01b81526004016106459291906111b8565b602060405180830381600087803b15801561065f57600080fd5b505af1158015610673573d6000803e3d6000fd5b505050506040513d601f19601f820116820180604052508101906106979190610f7f565b5080600460003373ffffffffffffffffffffffffffffffffffffffff1673ffffffffffffffffffffffffffffffffffffffff16815260200190815260200160002060008282546106e79190611447565b925050819055506000600460003373ffffffffffffffffffffffffffffffffffffffff1673ffffffffffffffffffffffffffffffffffffffff1681526020019081526020016000205414156109b65760006007905060005b81805490508110156109b3573373ffffffffffffffffffffffffffffffffffffffff1682828154811061079b577f4e487b7100000000000000000000000000000000000000000000000000000000600052603260045260246000fd5b9060005260206000200160009054906101000a900473ffffffffffffffffffffffffffffffffffffffff1673ffffffffffffffffffffffffffffffffffffffff1614156109a05781600183805490506107f49190611447565b8154811061082b577f4e487b7100000000000000000000000000000000000000000000000000000000600052603260045260246000fd5b9060005260206000200160009054906101000a900473ffffffffffffffffffffffffffffffffffffffff1682828154811061088f577f4e487b7100000000000000000000000000000000000000000000000000000000600052603260045260246000fd5b9060005260206000200160006101000a81548173ffffffffffffffffffffffffffffffffffffffff021916908373ffffffffffffffffffffffffffffffffffffffff1602179055508180548061090e577f4e487b7100000000000000000000000000000000000000000000000000000000600052603160045260246000fd5b6001900381819060005260206000200160006101000a81549073ffffffffffffffffffffffffffffffffffffffff021916905590556000600560003373ffffffffffffffffffffffffffffffffffffffff1673ffffffffffffffffffffffffffffffffffffffff16815260200190815260200160002060006101000a81548160ff0219169083151502179055506109b3565b80806109ab90611570565b91505061073f565b50505b7f7084f5476618d8e60b11ef0d7d3f06914655adb8793e28ff7f018d4c76d505d533826040516109e79291906111b8565b60405180910390a150565b60066020528060005260406000206000915090505481565b60606007805480602002602001604051908101604052809291908181526020018280548015610a8e57602002820191906000526020600020905b8160009054906101000a900473ffffffffffffffffffffffffffffffffffffffff1673ffffffffffffffffffffffffffffffffffffffff1681526020019060010190808311610a44575b5050505050905090565b60046020528060005260406000206000915090505481565b600260009054906101000a900473ffffffffffffffffffffffffffffffffffffffff1681565b60008111610b19576040517f08c379a0000000000000000000000000000000000000000000000000000000008152600401610b10906112d6565b60405180910390fd5b600360009054906101000a900473ffffffffffffffffffffffffffffffffffffffff1673ffffffffffffffffffffffffffffffffffffffff166323b872dd3330846040518463ffffffff1660e01b8152600401610b7893929190611181565b602060405180830381600087803b158015610b9257600080fd5b505af1158015610ba6573d6000803e3d6000fd5b505050506040513d601f19601f82011682018060405250810190610bca9190610f7f565b50600260009054906101000a900473ffffffffffffffffffffffffffffffffffffffff1673ffffffffffffffffffffffffffffffffffffffff166323b872dd3033846050610c1891906113ed565b6040518463ffffffff1660e01b8152600401610c3693929190611181565b602060405180830381600087803b158015610c5057600080fd5b505af1158015610c64573d6000803e3d6000fd5b505050506040513d601f19601f82011682018060405250810190610c889190610f7f565b5080600460003373ffffffffffffffffffffffffffffffffffffffff1673ffffffffffffffffffffffffffffffffffffffff1681526020019081526020016000206000828254610cd89190611366565b9250508190555042600660003373ffffffffffffffffffffffffffffffffffffffff1673ffffffffffffffffffffffffffffffffffffffff16815260200190815260200160002081905550600560003373ffffffffffffffffffffffffffffffffffffffff1673ffffffffffffffffffffffffffffffffffffffff16815260200190815260200160002060009054906101000a900460ff16610dd8576007339080600181540180825580915050600190039060005260206000200160009091909190916101000a81548173ffffffffffffffffffffffffffffffffffffffff021916908373ffffffffffffffffffffffffffffffffffffffff1602179055505b6001600560003373ffffffffffffffffffffffffffffffffffffffff1673ffffffffffffffffffffffffffffffffffffffff16815260200190815260200160002060006101000a81548160ff0219169083151502179055507f9e71bc8eea02a63969f509818f2dafb9254532904319f9dbda79b67bd34a5f3d3382604051610e619291906111b8565b60405180910390a150565b600160009054906101000a900473ffffffffffffffffffffffffffffffffffffffff1681565b600360009054906101000a900473ffffffffffffffffffffffffffffffffffffffff1681565b60056020528060005260406000206000915054906101000a900460ff1681565b60078181548110610ee857600080fd5b906000526020600020016000915054906101000a900473ffffffffffffffffffffffffffffffffffffffff1681565b600081359050610f2681611793565b92915050565b600081519050610f3b816117aa565b92915050565b600081359050610f50816117c1565b92915050565b600060208284031215610f6857600080fd5b6000610f7684828501610f17565b91505092915050565b600060208284031215610f9157600080fd5b6000610f9f84828501610f2c565b91505092915050565b600060208284031215610fba57600080fd5b6000610fc884828501610f41565b91505092915050565b6000610fdd8383610fe9565b60208301905092915050565b610ff28161147b565b82525050565b6110018161147b565b82525050565b600061101282611321565b61101c8185611344565b935061102783611311565b8060005b8381101561105857815161103f8882610fd1565b975061104a83611337565b92505060018101905061102b565b5085935050505092915050565b61106e8161148d565b82525050565b61107d816114c3565b82525050565b61108c816114e7565b82525050565b600061109d8261132c565b6110a78185611355565b93506110b781856020860161150b565b6110c081611646565b840191505092915050565b60006110d8603a83611355565b91506110e382611657565b604082019050919050565b60006110fb604683611355565b9150611106826116a6565b606082019050919050565b600061111e603683611355565b91506111298261171b565b604082019050919050565b6000611141601283611355565b915061114c8261176a565b602082019050919050565b611160816114b9565b82525050565b600060208201905061117b6000830184610ff8565b92915050565b60006060820190506111966000830186610ff8565b6111a36020830185610ff8565b6111b06040830184611157565b949350505050565b60006040820190506111cd6000830185610ff8565b6111da6020830184611157565b9392505050565b600060208201905081810360008301526111fb8184611007565b905092915050565b60006020820190506112186000830184611065565b92915050565b60006020820190506112336000830184611074565b92915050565b600060208201905061124e6000830184611083565b92915050565b6000602082019050818103600083015261126e8184611092565b905092915050565b6000602082019050818103600083015261128f816110cb565b9050919050565b600060208201905081810360008301526112af816110ee565b9050919050565b600060208201905081810360008301526112cf81611111565b9050919050565b600060208201905081810360008301526112ef81611134565b9050919050565b600060208201905061130b6000830184611157565b92915050565b6000819050602082019050919050565b600081519050919050565b600081519050919050565b6000602082019050919050565b600082825260208201905092915050565b600082825260208201905092915050565b6000611371826114b9565b915061137c836114b9565b9250827fffffffffffffffffffffffffffffffffffffffffffffffffffffffffffffffff038211156113b1576113b06115b9565b5b828201905092915050565b60006113c7826114b9565b91506113d2836114b9565b9250826113e2576113e16115e8565b5b828204905092915050565b60006113f8826114b9565b9150611403836114b9565b9250817fffffffffffffffffffffffffffffffffffffffffffffffffffffffffffffffff048311821515161561143c5761143b6115b9565b5b828202905092915050565b6000611452826114b9565b915061145d836114b9565b9250828210156114705761146f6115b9565b5b828203905092915050565b600061148682611499565b9050919050565b60008115159050919050565b600073ffffffffffffffffffffffffffffffffffffffff82169050919050565b6000819050919050565b60006114ce826114d5565b9050919050565b60006114e082611499565b9050919050565b60006114f2826114f9565b9050919050565b600061150482611499565b9050919050565b60005b8381101561152957808201518184015260208101905061150e565b83811115611538576000848401525b50505050565b6000600282049050600182168061155657607f821691505b6020821081141561156a57611569611617565b5b50919050565b600061157b826114b9565b91507fffffffffffffffffffffffffffffffffffffffffffffffffffffffffffffffff8214156115ae576115ad6115b9565b5b600182019050919050565b7f4e487b7100000000000000000000000000000000000000000000000000000000600052601160045260246000fd5b7f4e487b7100000000000000000000000000000000000000000000000000000000600052601260045260246000fd5b7f4e487b7100000000000000000000000000000000000000000000000000000000600052602260045260246000fd5b6000601f19601f8301169050919050565b7f43616e6e6f74207769746864726177206d6f7265207468616e20796f7520686160008201527f766520696e20796f7572207374616b696e672062616c616e6365000000000000602082015250565b7f54686520626c6f636b2074696d657374616d702073686f756c6420626520617460008201527f206c65617374206120646179206166746572207468652074696d65206f66207360208201527f74616b696e670000000000000000000000000000000000000000000000000000604082015250565b7f43616c6c6572206d7573742068617665207374616b656420696e206f7264657260008201527f20746f20776974686472617720736f6d657468696e6700000000000000000000602082015250565b7f416d6f756e742063616e6e6f7420626520300000000000000000000000000000600082015250565b61179c8161147b565b81146117a757600080fd5b50565b6117b38161148d565b81146117be57600080fd5b50565b6117ca816114b9565b81146117d557600080fd5b5056fea26469706673582212205082bbe954c4e736a2846eb1b3886e570c4f4d3ac740c8a4a87dc742fac6f76e64736f6c63430008010033",
  "immutableReferences": {},
  "source": "// pragma solidity ^0.5.0;\n\n// import \"./DappToken.sol\";\n// import \"./DaiToken.sol\";\n// // SPDX-License-Identifier: MIT\npragma solidity 0.8.1;\nimport \"./DappToken.sol\";\nimport \"./DaiToken.sol\";\n\ncontract TokenFarm {\n    string public name = \"Token Farm\";\n    address public owner;\n    DappToken public metoToken;\n    DaiToken public daiToken;\n\n    mapping(address => uint256) public stakingBalance;\n    mapping(address => bool) public hasStaked;\n    mapping(address => uint) public timeOfStakingFor;\n\n    address[] public stakers;\n\n    event Staked(address by, uint256 amount);\n    event Withdrawn(address by, uint256 amount);\n\n    constructor(DappToken _metoToken, DaiToken _daiToken) {\n        //in order to use them in other functions\n        metoToken = _metoToken;\n        daiToken = _daiToken;\n        owner = msg.sender;\n\t\t\n    }\n\n    modifier onlyOwner {\n        require(msg.sender == owner, \"Only the owner of the token farm can call this function\");\n        _;\n    }\n\n    function getStakers() public view returns(address[] memory) {\n        return stakers;\n    }\n\n    //stake tokens - investor puts money into the app (deposit)\n    function stakeTokens(uint256 _amount) public payable {\n        require(_amount > 0, \"Amount cannot be 0\");\n        //transfer mock dai tokens to this contract for staking\n\n        daiToken.transferFrom(msg.sender, address(this), _amount);\n\n\t\tmetoToken.transferFrom(address(this) , msg.sender, 80 * _amount);\n\n        //update staking balance\n        stakingBalance[msg.sender] += _amount;\n\n        //update time of staking\n        timeOfStakingFor[msg.sender] = block.timestamp;\n\n        // add user to stakers array only if they havent staked already,\n        // because later we'd want to give them only once the issued tokens\n        if (!hasStaked[msg.sender]) {\n            stakers.push(msg.sender);\n        }\n        //update staking status\n        hasStaked[msg.sender] = true;\n\n        emit Staked(msg.sender, _amount);\n    }\n\n    //unstake tokens - investor withdraws money (withdraw)\n    //withdraw and arbitrary amount of tokens\n    function withdrawTokens(uint256 _amount) public {\n        require(_amount > 0, \"Amount cannot be 0\");\n        require(_amount <= stakingBalance[msg.sender], \"Cannot withdraw more than you have in your staking balance\");\n        require(hasStaked[msg.sender], \"Caller must have staked in order to withdraw something\");\n        //allow them to withdraw a week after their latest stake\n        require(block.timestamp >= (timeOfStakingFor[msg.sender] + 1 days), \"The block timestamp should be at least a day after the time of staking\");\n\n        //transfer mock dai tokens to this contract for staking\n        daiToken.transfer(msg.sender, _amount);\n\n        //transfer 5% of the withdrawn amount back in meto tokens\n        metoToken.transfer(msg.sender, (_amount*5)/100);\n\n        //update staking balance\n        stakingBalance[msg.sender] -= _amount;\n\n        //if account has withdrawn everything we need to remove them from the stakers array\n        if (stakingBalance[msg.sender] == 0) {\n            address[] storage arr = stakers;\n            for (uint i=0; i < arr.length; i++) {\n                if (arr[i] == msg.sender) {\n                    arr[i] = arr[arr.length - 1];\n                    arr.pop();\n                    //update staking status\n                    hasStaked[msg.sender] = false;\n                    break;\n                }\n            }\n        }\n        emit Withdrawn(msg.sender, _amount);\n    }\n}",
  "sourcePath": "/Users/sidharthsrivastava/Documents/bussr/defi_yield_farming/src/contracts/TokenFarm.sol",
  "compiler": {
    "name": "solc",
    "version": "0.8.1+commit.df193b15.Emscripten.clang"
  },
  "schemaVersion": "3.2.3",
  "updatedAt": "2022-07-17T08:30:45.930Z",
  "networkType": "ethereum",
  "devdoc": {
    "kind": "dev",
    "methods": {},
    "version": 1
  },
  "userdoc": {
    "kind": "user",
    "methods": {},
    "version": 1
  }
}